{
  "contractName": "Amulets",
  "abi": [
    {
      "anonymous": false,
      "inputs": [
        {
          "indexed": true,
          "internalType": "address",
          "name": "owner",
          "type": "address"
        },
        {
          "indexed": true,
          "internalType": "address",
          "name": "approved",
          "type": "address"
        },
        {
          "indexed": true,
          "internalType": "uint256",
          "name": "tokenId",
          "type": "uint256"
        }
      ],
      "name": "Approval",
      "type": "event"
    },
    {
      "anonymous": false,
      "inputs": [
        {
          "indexed": true,
          "internalType": "address",
          "name": "owner",
          "type": "address"
        },
        {
          "indexed": true,
          "internalType": "address",
          "name": "operator",
          "type": "address"
        },
        {
          "indexed": false,
          "internalType": "bool",
          "name": "approved",
          "type": "bool"
        }
      ],
      "name": "ApprovalForAll",
      "type": "event"
    },
    {
      "anonymous": false,
      "inputs": [
        {
          "indexed": true,
          "internalType": "address",
          "name": "previousOwner",
          "type": "address"
        },
        {
          "indexed": true,
          "internalType": "address",
          "name": "newOwner",
          "type": "address"
        }
      ],
      "name": "OwnershipTransferred",
      "type": "event"
    },
    {
      "anonymous": false,
      "inputs": [
        {
          "indexed": true,
          "internalType": "address",
          "name": "from",
          "type": "address"
        },
        {
          "indexed": true,
          "internalType": "address",
          "name": "to",
          "type": "address"
        },
        {
          "indexed": true,
          "internalType": "uint256",
          "name": "tokenId",
          "type": "uint256"
        }
      ],
      "name": "Transfer",
      "type": "event"
    },
    {
      "inputs": [],
      "name": "MAX_TOKENS",
      "outputs": [
        {
          "internalType": "uint256",
          "name": "",
          "type": "uint256"
        }
      ],
      "stateMutability": "view",
      "type": "function"
    },
    {
      "inputs": [
        {
          "internalType": "address",
          "name": "to",
          "type": "address"
        },
        {
          "internalType": "uint256",
          "name": "tokenId",
          "type": "uint256"
        }
      ],
      "name": "approve",
      "outputs": [],
      "stateMutability": "nonpayable",
      "type": "function"
    },
    {
      "inputs": [
        {
          "internalType": "address",
          "name": "owner",
          "type": "address"
        }
      ],
      "name": "balanceOf",
      "outputs": [
        {
          "internalType": "uint256",
          "name": "",
          "type": "uint256"
        }
      ],
      "stateMutability": "view",
      "type": "function"
    },
    {
      "inputs": [],
      "name": "baseURI",
      "outputs": [
        {
          "internalType": "string",
          "name": "",
          "type": "string"
        }
      ],
      "stateMutability": "view",
      "type": "function"
    },
    {
      "inputs": [
        {
          "internalType": "uint256",
          "name": "tokenId",
          "type": "uint256"
        }
      ],
      "name": "getApproved",
      "outputs": [
        {
          "internalType": "address",
          "name": "",
          "type": "address"
        }
      ],
      "stateMutability": "view",
      "type": "function"
    },
    {
      "inputs": [
        {
          "internalType": "address",
          "name": "owner",
          "type": "address"
        },
        {
          "internalType": "address",
          "name": "operator",
          "type": "address"
        }
      ],
      "name": "isApprovedForAll",
      "outputs": [
        {
          "internalType": "bool",
          "name": "",
          "type": "bool"
        }
      ],
      "stateMutability": "view",
      "type": "function"
    },
    {
      "inputs": [],
      "name": "name",
      "outputs": [
        {
          "internalType": "string",
          "name": "",
          "type": "string"
        }
      ],
      "stateMutability": "view",
      "type": "function"
    },
    {
      "inputs": [],
      "name": "owner",
      "outputs": [
        {
          "internalType": "address",
          "name": "",
          "type": "address"
        }
      ],
      "stateMutability": "view",
      "type": "function"
    },
    {
      "inputs": [
        {
          "internalType": "uint256",
          "name": "tokenId",
          "type": "uint256"
        }
      ],
      "name": "ownerOf",
      "outputs": [
        {
          "internalType": "address",
          "name": "",
          "type": "address"
        }
      ],
      "stateMutability": "view",
      "type": "function"
    },
    {
      "inputs": [],
      "name": "price",
      "outputs": [
        {
          "internalType": "uint256",
          "name": "",
          "type": "uint256"
        }
      ],
      "stateMutability": "view",
      "type": "function"
    },
    {
      "inputs": [],
      "name": "renounceOwnership",
      "outputs": [],
      "stateMutability": "nonpayable",
      "type": "function"
    },
    {
      "inputs": [
        {
          "internalType": "address",
          "name": "from",
          "type": "address"
        },
        {
          "internalType": "address",
          "name": "to",
          "type": "address"
        },
        {
          "internalType": "uint256",
          "name": "tokenId",
          "type": "uint256"
        }
      ],
      "name": "safeTransferFrom",
      "outputs": [],
      "stateMutability": "nonpayable",
      "type": "function"
    },
    {
      "inputs": [
        {
          "internalType": "address",
          "name": "from",
          "type": "address"
        },
        {
          "internalType": "address",
          "name": "to",
          "type": "address"
        },
        {
          "internalType": "uint256",
          "name": "tokenId",
          "type": "uint256"
        },
        {
          "internalType": "bytes",
          "name": "_data",
          "type": "bytes"
        }
      ],
      "name": "safeTransferFrom",
      "outputs": [],
      "stateMutability": "nonpayable",
      "type": "function"
    },
    {
      "inputs": [
        {
          "internalType": "address",
          "name": "operator",
          "type": "address"
        },
        {
          "internalType": "bool",
          "name": "approved",
          "type": "bool"
        }
      ],
      "name": "setApprovalForAll",
      "outputs": [],
      "stateMutability": "nonpayable",
      "type": "function"
    },
    {
      "inputs": [],
      "name": "symbol",
      "outputs": [
        {
          "internalType": "string",
          "name": "",
          "type": "string"
        }
      ],
      "stateMutability": "view",
      "type": "function"
    },
    {
      "inputs": [
        {
          "internalType": "uint256",
          "name": "tokenId",
          "type": "uint256"
        }
      ],
      "name": "tokenURI",
      "outputs": [
        {
          "internalType": "string",
          "name": "",
          "type": "string"
        }
      ],
      "stateMutability": "view",
      "type": "function"
    },
    {
      "inputs": [
        {
          "internalType": "address",
          "name": "from",
          "type": "address"
        },
        {
          "internalType": "address",
          "name": "to",
          "type": "address"
        },
        {
          "internalType": "uint256",
          "name": "tokenId",
          "type": "uint256"
        }
      ],
      "name": "transferFrom",
      "outputs": [],
      "stateMutability": "nonpayable",
      "type": "function"
    },
    {
      "inputs": [
        {
          "internalType": "address",
          "name": "newOwner",
          "type": "address"
        }
      ],
      "name": "transferOwnership",
      "outputs": [],
      "stateMutability": "nonpayable",
      "type": "function"
    },
    {
      "inputs": [
        {
          "internalType": "bytes4",
          "name": "interfaceId",
          "type": "bytes4"
        }
      ],
      "name": "supportsInterface",
      "outputs": [
        {
          "internalType": "bool",
          "name": "",
          "type": "bool"
        }
      ],
      "stateMutability": "view",
      "type": "function"
    },
    {
      "inputs": [],
      "name": "mint",
      "outputs": [],
      "stateMutability": "payable",
      "type": "function"
    },
    {
      "inputs": [],
      "name": "withdraw",
      "outputs": [],
      "stateMutability": "nonpayable",
      "type": "function"
    }
  ],
  "bytecode": "0x6000600881905561271060095560a0604081905260808290526200002791600a919062000125565b503480156200003557600080fd5b50604080518082018252601581527f53706163652043617274656c7320416d756c657473000000000000000000000060208083019182528351808501909452600384526253434160e81b908401528151919291620000969160009162000125565b508051620000ac90600190602084019062000125565b505050620000c9620000c3620000cf60201b60201c565b620000d3565b62000208565b3390565b600680546001600160a01b038381166001600160a01b0319831681179093556040519116919082907f8be0079c531659141344cd1fd0a4f28419497f9722a3daafe3b4186f6b6457e090600090a35050565b8280546200013390620001cb565b90600052602060002090601f016020900481019282620001575760008555620001a2565b82601f106200017257805160ff1916838001178555620001a2565b82800160010185558215620001a2579182015b82811115620001a257825182559160200191906001019062000185565b50620001b0929150620001b4565b5090565b5b80821115620001b05760008155600101620001b5565b600181811c90821680620001e057607f821691505b602082108114156200020257634e487b7160e01b600052602260045260246000fd5b50919050565b6118d980620002186000396000f3fe60806040526004361061012a5760003560e01c806370a08231116100ab578063a22cb4651161006f578063a22cb465146102fe578063b88d4fde1461031e578063c87b56dd1461033e578063e985e9c51461035e578063f2fde38b146103a7578063f47c84c5146103c75761012a565b806370a0823114610272578063715018a6146102a05780638da5cb5b146102b557806395d89b41146102d3578063a035b1fe146102e85761012a565b806323b872dd116100f257806323b872dd146101e85780633ccfd60b1461020857806342842e0e1461021d5780636352211e1461023d5780636c0360eb1461025d5761012a565b806301ffc9a71461012f57806306fdde0314610164578063081812fc14610186578063095ea7b3146101be5780631249c58b146101e0575b600080fd5b34801561013b57600080fd5b5061014f61014a36600461159f565b6103dd565b60405190151581526020015b60405180910390f35b34801561017057600080fd5b5061017961040a565b60405161015b9190611687565b34801561019257600080fd5b506101a66101a13660046115d7565b61049c565b6040516001600160a01b03909116815260200161015b565b3480156101ca57600080fd5b506101de6101d9366004611576565b610536565b005b6101de61064c565b3480156101f457600080fd5b506101de61020336600461142c565b610704565b34801561021457600080fd5b506101de610735565b34801561022957600080fd5b506101de61023836600461142c565b61079b565b34801561024957600080fd5b506101a66102583660046115d7565b6107b6565b34801561026957600080fd5b5061017961082d565b34801561027e57600080fd5b5061029261028d3660046113e0565b6108bb565b60405190815260200161015b565b3480156102ac57600080fd5b506101de610942565b3480156102c157600080fd5b506006546001600160a01b03166101a6565b3480156102df57600080fd5b50610179610978565b3480156102f457600080fd5b5061029260085481565b34801561030a57600080fd5b506101de61031936600461153c565b610987565b34801561032a57600080fd5b506101de610339366004611467565b610996565b34801561034a57600080fd5b506101796103593660046115d7565b6109ce565b34801561036a57600080fd5b5061014f6103793660046113fa565b6001600160a01b03918216600090815260056020908152604080832093909416825291909152205460ff1690565b3480156103b357600080fd5b506101de6103c23660046113e0565b610aa9565b3480156103d357600080fd5b5061029260095481565b60006001600160e01b0319821663780e9d6360e01b1480610402575061040282610b41565b90505b919050565b606060008054610419906117e1565b80601f0160208091040260200160405190810160405280929190818152602001828054610445906117e1565b80156104925780601f1061046757610100808354040283529160200191610492565b820191906000526020600020905b81548152906001019060200180831161047557829003601f168201915b5050505050905090565b6000818152600260205260408120546001600160a01b031661051a5760405162461bcd60e51b815260206004820152602c60248201527f4552433732313a20617070726f76656420717565727920666f72206e6f6e657860448201526b34b9ba32b73a103a37b5b2b760a11b60648201526084015b60405180910390fd5b506000908152600460205260409020546001600160a01b031690565b6000610541826107b6565b9050806001600160a01b0316836001600160a01b031614156105af5760405162461bcd60e51b815260206004820152602160248201527f4552433732313a20617070726f76616c20746f2063757272656e74206f776e656044820152603960f91b6064820152608401610511565b336001600160a01b03821614806105cb57506105cb8133610379565b61063d5760405162461bcd60e51b815260206004820152603860248201527f4552433732313a20617070726f76652063616c6c6572206973206e6f74206f7760448201527f6e6572206e6f7220617070726f76656420666f7220616c6c00000000000000006064820152608401610511565b6106478383610b91565b505050565b600954600754106106945760405162461bcd60e51b81526020600482015260126024820152714552433732313a204d617820737570706c7960701b6044820152606401610511565b60085434146106e55760405162461bcd60e51b815260206004820152601960248201527f546865207072696365206f6620746865204e46542069732030000000000000006044820152606401610511565b6106f133600754610bff565b6007546106ff906001611772565b600755565b61070e3382610c19565b61072a5760405162461bcd60e51b815260040161051190611721565b610647838383610d10565b6006546001600160a01b0316331461075f5760405162461bcd60e51b8152600401610511906116ec565b6006546040516001600160a01b03909116904780156108fc02916000818181858888f19350505050158015610798573d6000803e3d6000fd5b50565b61064783838360405180602001604052806000815250610996565b6000818152600260205260408120546001600160a01b0316806104025760405162461bcd60e51b815260206004820152602960248201527f4552433732313a206f776e657220717565727920666f72206e6f6e657869737460448201526832b73a103a37b5b2b760b91b6064820152608401610511565b600a805461083a906117e1565b80601f0160208091040260200160405190810160405280929190818152602001828054610866906117e1565b80156108b35780601f10610888576101008083540402835291602001916108b3565b820191906000526020600020905b81548152906001019060200180831161089657829003601f168201915b505050505081565b60006001600160a01b0382166109265760405162461bcd60e51b815260206004820152602a60248201527f4552433732313a2062616c616e636520717565727920666f7220746865207a65604482015269726f206164647265737360b01b6064820152608401610511565b506001600160a01b031660009081526003602052604090205490565b6006546001600160a01b0316331461096c5760405162461bcd60e51b8152600401610511906116ec565b6109766000610eb7565b565b606060018054610419906117e1565b610992338383610f09565b5050565b6109a03383610c19565b6109bc5760405162461bcd60e51b815260040161051190611721565b6109c884848484610fd8565b50505050565b6000818152600260205260409020546060906001600160a01b0316610a4d5760405162461bcd60e51b815260206004820152602f60248201527f4552433732314d657461646174613a2055524920717565727920666f72206e6f60448201526e3732bc34b9ba32b73a103a37b5b2b760891b6064820152608401610511565b6000610a5761100b565b90506000815111610a775760405180602001604052806000815250610aa2565b80610a818461101a565b604051602001610a9292919061161b565b6040516020818303038152906040525b9392505050565b6006546001600160a01b03163314610ad35760405162461bcd60e51b8152600401610511906116ec565b6001600160a01b038116610b385760405162461bcd60e51b815260206004820152602660248201527f4f776e61626c653a206e6577206f776e657220697320746865207a65726f206160448201526564647265737360d01b6064820152608401610511565b61079881610eb7565b60006001600160e01b031982166380ac58cd60e01b1480610b7257506001600160e01b03198216635b5e139f60e01b145b8061040257506301ffc9a760e01b6001600160e01b0319831614610402565b600081815260046020526040902080546001600160a01b0319166001600160a01b0384169081179091558190610bc6826107b6565b6001600160a01b03167f8c5be1e5ebec7d5bd14f71427d1e84f3dd0314c0f7b2291e5b200ac8c7c3b92560405160405180910390a45050565b610992828260405180602001604052806000815250611135565b6000818152600260205260408120546001600160a01b0316610c925760405162461bcd60e51b815260206004820152602c60248201527f4552433732313a206f70657261746f7220717565727920666f72206e6f6e657860448201526b34b9ba32b73a103a37b5b2b760a11b6064820152608401610511565b6000610c9d836107b6565b9050806001600160a01b0316846001600160a01b03161480610ce457506001600160a01b0380821660009081526005602090815260408083209388168352929052205460ff165b80610d085750836001600160a01b0316610cfd8461049c565b6001600160a01b0316145b949350505050565b826001600160a01b0316610d23826107b6565b6001600160a01b031614610d875760405162461bcd60e51b815260206004820152602560248201527f4552433732313a207472616e736665722066726f6d20696e636f72726563742060448201526437bbb732b960d91b6064820152608401610511565b6001600160a01b038216610de95760405162461bcd60e51b8152602060048201526024808201527f4552433732313a207472616e7366657220746f20746865207a65726f206164646044820152637265737360e01b6064820152608401610511565b610df4838383611168565b610dff600082610b91565b6001600160a01b0383166000908152600360205260408120805460019290610e2890849061179e565b90915550506001600160a01b0382166000908152600360205260408120805460019290610e56908490611772565b909155505060008181526002602052604080822080546001600160a01b0319166001600160a01b0386811691821790925591518493918716917fddf252ad1be2c89b69c2b068fc378daa952ba7f163c4a11628f55a4df523b3ef91a4610647565b600680546001600160a01b038381166001600160a01b0319831681179093556040519116919082907f8be0079c531659141344cd1fd0a4f28419497f9722a3daafe3b4186f6b6457e090600090a35050565b816001600160a01b0316836001600160a01b03161415610f6b5760405162461bcd60e51b815260206004820152601960248201527f4552433732313a20617070726f766520746f2063616c6c6572000000000000006044820152606401610511565b6001600160a01b03838116600081815260056020908152604080832094871680845294825291829020805460ff191686151590811790915591519182527f17307eab39ab6107e8899845ad3d59bd9653f200f220920489ca2b5937696c31910160405180910390a3505050565b610fe3848484610d10565b610fef8484848461116d565b6109c85760405162461bcd60e51b81526004016105119061169a565b6060600a8054610419906117e1565b60608161103f57506040805180820190915260018152600360fc1b6020820152610405565b8160005b811561106957806110538161181c565b91506110629050600a8361178a565b9150611043565b60008167ffffffffffffffff81111561109257634e487b7160e01b600052604160045260246000fd5b6040519080825280601f01601f1916602001820160405280156110bc576020820181803683370190505b5090505b8415610d08576110d160018361179e565b91506110de600a86611837565b6110e9906030611772565b60f81b81838151811061110c57634e487b7160e01b600052603260045260246000fd5b60200101906001600160f81b031916908160001a90535061112e600a8661178a565b94506110c0565b61113f838361127a565b61114c600084848461116d565b6106475760405162461bcd60e51b81526004016105119061169a565b610647565b60006001600160a01b0384163b1561126f57604051630a85bd0160e11b81526001600160a01b0385169063150b7a02906111b190339089908890889060040161164a565b602060405180830381600087803b1580156111cb57600080fd5b505af19250505080156111fb575060408051601f3d908101601f191682019092526111f8918101906115bb565b60015b611255573d808015611229576040519150601f19603f3d011682016040523d82523d6000602084013e61122e565b606091505b50805161124d5760405162461bcd60e51b81526004016105119061169a565b805181602001fd5b6001600160e01b031916630a85bd0160e11b149050610d08565b506001949350505050565b6001600160a01b0382166112d05760405162461bcd60e51b815260206004820181905260248201527f4552433732313a206d696e7420746f20746865207a65726f20616464726573736044820152606401610511565b6000818152600260205260409020546001600160a01b0316156113355760405162461bcd60e51b815260206004820152601c60248201527f4552433732313a20746f6b656e20616c7265616479206d696e746564000000006044820152606401610511565b61134160008383611168565b6001600160a01b038216600090815260036020526040812080546001929061136a908490611772565b909155505060008181526002602052604080822080546001600160a01b0319166001600160a01b03861690811790915590518392907fddf252ad1be2c89b69c2b068fc378daa952ba7f163c4a11628f55a4df523b3ef908290a4610992565b80356001600160a01b038116811461040557600080fd5b6000602082840312156113f1578081fd5b610aa2826113c9565b6000806040838503121561140c578081fd5b611415836113c9565b9150611423602084016113c9565b90509250929050565b600080600060608486031215611440578081fd5b611449846113c9565b9250611457602085016113c9565b9150604084013590509250925092565b6000806000806080858703121561147c578081fd5b611485856113c9565b9350611493602086016113c9565b925060408501359150606085013567ffffffffffffffff808211156114b6578283fd5b818701915087601f8301126114c9578283fd5b8135818111156114db576114db611877565b604051601f8201601f19908116603f0116810190838211818310171561150357611503611877565b816040528281528a602084870101111561151b578586fd5b82602086016020830137918201602001949094529598949750929550505050565b6000806040838503121561154e578182fd5b611557836113c9565b91506020830135801515811461156b578182fd5b809150509250929050565b60008060408385031215611588578182fd5b611591836113c9565b946020939093013593505050565b6000602082840312156115b0578081fd5b8135610aa28161188d565b6000602082840312156115cc578081fd5b8151610aa28161188d565b6000602082840312156115e8578081fd5b5035919050565b600081518084526116078160208601602086016117b5565b601f01601f19169290920160200192915050565b6000835161162d8184602088016117b5565b8351908301906116418183602088016117b5565b01949350505050565b6001600160a01b038581168252841660208201526040810183905260806060820181905260009061167d908301846115ef565b9695505050505050565b600060208252610aa260208301846115ef565b60208082526032908201527f4552433732313a207472616e7366657220746f206e6f6e20455243373231526560408201527131b2b4bb32b91034b6b83632b6b2b73a32b960711b606082015260800190565b6020808252818101527f4f776e61626c653a2063616c6c6572206973206e6f7420746865206f776e6572604082015260600190565b60208082526031908201527f4552433732313a207472616e736665722063616c6c6572206973206e6f74206f6040820152701ddb995c881b9bdc88185c1c1c9bdd9959607a1b606082015260800190565b600082198211156117855761178561184b565b500190565b60008261179957611799611861565b500490565b6000828210156117b0576117b061184b565b500390565b60005b838110156117d05781810151838201526020016117b8565b838111156109c85750506000910152565b600181811c908216806117f557607f821691505b6020821081141561181657634e487b7160e01b600052602260045260246000fd5b50919050565b60006000198214156118305761183061184b565b5060010190565b60008261184657611846611861565b500690565b634e487b7160e01b600052601160045260246000fd5b634e487b7160e01b600052601260045260246000fd5b634e487b7160e01b600052604160045260246000fd5b6001600160e01b03198116811461079857600080fdfea2646970667358221220c2d164ce68e854401e653aabe5bdae70f3b4d20e086028f5dd3b1ab770e2ec6464736f6c63430008030033",
  "immutableReferences": {},
  "source": "// SPDX-License-Identifier: MIT\npragma solidity ^0.8.3;\n\nimport \"@openzeppelin/contracts/token/ERC721/ERC721.sol\";\nimport \"@openzeppelin/contracts/access/Ownable.sol\";\nimport \"@openzeppelin/contracts/token/ERC721/extensions/ERC721Enumerable.sol\";\n\ncontract Amulets is ERC721(\"Space Cartels Amulets\", \"SCA\"), Ownable {\n  uint256 tokenCounter;\n  uint256 public price = 0;\n  uint256 public MAX_TOKENS = 10000;\n  string public baseURI = \"\";\n\n  using Strings for uint256;\n\n  function _beforeTokenTransfer(\n    address from,\n    address to,\n    uint256 tokenId\n  ) internal virtual override(ERC721) {\n    super._beforeTokenTransfer(from, to, tokenId);\n  }\n\n  function supportsInterface(bytes4 interfaceId)\n    public\n    view\n    virtual\n    override(ERC721)\n    returns (bool)\n  {\n    return\n      interfaceId == type(IERC721Enumerable).interfaceId ||\n      super.supportsInterface(interfaceId);\n  }\n\n  function _baseURI()\n    internal\n    view\n    virtual\n    override(ERC721)\n    returns (string memory)\n  {\n    return baseURI;\n  }\n\n  function mint() public payable {\n    require(tokenCounter < MAX_TOKENS, \"ERC721: Max supply\");\n    require(msg.value == price, \"The price of the NFT is 0\");\n    _safeMint(_msgSender(), tokenCounter);\n    tokenCounter = tokenCounter + 1;\n  }\n\n  function withdraw() external onlyOwner {\n    payable(owner()).transfer(address(this).balance);\n  }\n}\n",
  "sourcePath": "/Users/jimx6/Development/globalgames/space-cartles/packages/blockchain/contracts/Amulets.sol",
  "compiler": {
    "name": "solc",
    "version": "0.8.3+commit.8d00100c.Emscripten.clang"
  },
  "schemaVersion": "3.4.7",
  "updatedAt": "2022-05-25T20:05:57.508Z",
  "devdoc": {
    "kind": "dev",
    "methods": {
      "approve(address,uint256)": {
        "details": "See {IERC721-approve}."
      },
      "balanceOf(address)": {
        "details": "See {IERC721-balanceOf}."
      },
      "getApproved(uint256)": {
        "details": "See {IERC721-getApproved}."
      },
      "isApprovedForAll(address,address)": {
        "details": "See {IERC721-isApprovedForAll}."
      },
      "name()": {
        "details": "See {IERC721Metadata-name}."
      },
      "owner()": {
        "details": "Returns the address of the current owner."
      },
      "ownerOf(uint256)": {
        "details": "See {IERC721-ownerOf}."
      },
      "renounceOwnership()": {
        "details": "Leaves the contract without owner. It will not be possible to call `onlyOwner` functions anymore. Can only be called by the current owner. NOTE: Renouncing ownership will leave the contract without an owner, thereby removing any functionality that is only available to the owner."
      },
      "safeTransferFrom(address,address,uint256)": {
        "details": "See {IERC721-safeTransferFrom}."
      },
      "safeTransferFrom(address,address,uint256,bytes)": {
        "details": "See {IERC721-safeTransferFrom}."
      },
      "setApprovalForAll(address,bool)": {
        "details": "See {IERC721-setApprovalForAll}."
      },
      "supportsInterface(bytes4)": {
        "details": "See {IERC165-supportsInterface}."
      },
      "symbol()": {
        "details": "See {IERC721Metadata-symbol}."
      },
      "tokenURI(uint256)": {
        "details": "See {IERC721Metadata-tokenURI}."
      },
      "transferFrom(address,address,uint256)": {
        "details": "See {IERC721-transferFrom}."
      },
      "transferOwnership(address)": {
        "details": "Transfers ownership of the contract to a new account (`newOwner`). Can only be called by the current owner."
      }
    },
    "version": 1
  },
  "userdoc": {
    "kind": "user",
    "methods": {},
    "version": 1
  }
}